S01700004763634170706C69636174696F6E312E737265635B
S11300000C9448000C94CF010C9465000C9465008A
S11300100C9465000C9465000C9465000C946302C8
S11300200C9465000C9465000C9465000C946500B8
S11300300C9465000C9465000C9465000C946500A8
S11300400C949B020C9465000C94B9010C9465000B
S11300500C9465000C9465000C9465000C94650088
S11300600C9465000C9465008F009A00A900B700F9
S1130070C500D200E000EC00FA000501020208020B
S113008012021B0224022C0235023C0245024B02DE
S113009011241FBECFEFD8E0DEBFCDBF11E0A0E03A
S11300A0B1E0E0E4F7E002C005900D92A031B107A1
S11300B0D9F721E0A0E1B1E001C01D92A931B20756
S11300C0E1F70E94AB010C949E030C940000F99993
S11300D0FECF92BD81BD60BDFA9AF99A0895F9994F
S11300E0FECF92BD81BDF89A80B5089584E090E07A
S11300F00E946F008A3028F060E084E090E00E9463
S1130100670084E090E00E946F0090E08A309105DF
S113011008F087C0FC01EC5CFF4F0C9463038BB1C7
S1130120886F8BB92D9A289860E084E090E00E9453
S1130130670008958BB188618BB98BB18F718BB9CE
S113014085B18E7D85B961E084E090E00E9467000E
S1130150089588E68BB98BB18F768BB985B18162AE
S113016085B962E084E090E00E946700089588E326
S11301708BB98BB18F738BB985B1816285B963E01B
S113018084E090E00E946700089588E98BB98BB100
S11301908F798BB9289A2D9864E084E090E00E94CE
S11301A06700089580EB8BB98BB1877B8BB985B1E0
S11301B0816285B965E084E090E00E94670008955B
S11301C080EF8BB95B9885B1816285B966E084E084
S11301D090E00E94670008958BB188618BB98BB160
S11301E08F718BB92D9A289867E084E090E00E9483
S11301F06700089588EF8BB985B1816285B968E09D
S113020084E090E00E94670008958BB1886B8BB9FD
S11302105E9885B1816285B969E084E090E00E94CE
S1130220670008958AB1886F8AB984B1816284B9FC
S11302300E9476000895249AEAE7F0E080818768B6
S11302408083ACE7B0E08C9180648C93808180647F
S113025080830895ECE7F0E09081892B8083EAE7BE
S1130260F0E0808180648083808186FDFDCFEAE7B1
S1130270F0E08081806180838091780090917900A2
S1130280089524EF31E0AC01429FC001439F900DDB
S1130290529F900D1124892F869586950895833257
S11302A010F42C980895843208F02C9A08958AB199
S11302B0887F8AB9E9E6F0E0808183608083E89AE8
S11302C00895CF93DF9300D01F92CDB7DEB780E0BF
S11302D00E942A0190931701809316010E94410104
S11302E0809318014AE0BE016F5F7F4F90E00E9447
S11302F069036EE080E091E00E94170363E0CE01A1
S113030001960E941703809118010E944F010F90DB
S11303100F900F90DF91CF91089580911501833054
S113032060F04A9B0AC08BB1886F8BB92D9A2898CC
S113033060E084E090E00E94670008950E944E030C
S11303400E9449030E9412010E9406030E941B019D
S11303500E94570108950E949E010E9461012FEF9F
S113036083ED90E3215080409040E1F700C000000D
S1130370F4CF1F920F920FB60F9211248F93809196
S1130380C600813619F0833719F003C02B9A01C0D7
S11303902B988F910F900FBE0F901F9018951F925E
S11303A00F920FB60F9211242F933F934F935F93A5
S11303B06F937F938F939F93AF93BF93EF93FF9329
S11303C084E090E00E946F00893020F48F5F809376
S11303D0100102C0109210016091100184E090E0BD
S11303E00E9467001092150184E090E00E946F0063
S11303F090E08A30910508F055C0FC01E25CFF4FA3
S11304000C9463038BB1886F8BB92D9A28984AC0DA
S11304108BB188618BB98BB18F718BB985B18E7DAE
S113042085B940C088E68BB98BB18F768BB985B11D
S1130430816285B937C088E38BB98BB18F738BB96F
S113044085B1816285B92EC088E98BB98BB18F796A
S11304508BB9289A2D9826C080EB8BB98BB1877BFA
S11304608BB985B1826285B91DC080EF8BB95B9869
S113047085B1816285B916C08BB188618BB98BB1A6
S11304808F718BB92D9A28980DC088EF8BB985B1DF
S1130490816285B907C08BB1886B8BB95E9885B1D1
S11304A0816285B9FF91EF91BF91AF919F918F9137
S11304B07F916F915F914F913F912F910F900FBE5C
S11304C00F901F9018951F920F920FB60F92112440
S11304D02F933F934F935F936F937F938F939F9348
S11304E0AF93BF93EF93FF93809111018F5F80933C
S11304F01101809111018D3369F41092110195B1AC
S113050084E0892785B9809115018F5F8093150157
S11305100E948D01FF91EF91BF91AF919F918F91B7
S11305207F916F915F914F913F912F910F900FBEEB
S11305300F901F9018951F920F920FB60F921124CF
S11305408F939F93EF93FF938091120190911301E6
S113055001969093130180931201809114018230CB
S113056089F018F4813031F020C0833091F0843068
S1130570C1F01BC0E8E8F0E080819181049691838A
S1130580808313C08FEF90E090938900809388005C
S11305900CC0E8E8F0E08081918104979183808326
S11305A004C01092890010928800809112019091E9
S11305B013018837910579F01CF4CC9741F01DC0E4
S11305C0843B910561F0803F910569F016C081E09C
S11305D08093140112C082E0809314010EC083E062
S11305E0809314010AC01092130110921201109208
S11305F089001092880010921401FF91EF919F914D
S11306008F910F900FBE0F901F901895239A109200
S1130610C50087E68093C400E2ECF0E08081866048
S11306208083E1ECF0E08081886980830895CF9332
S1130630DF93DC019C01260F311DE0ECF0E0C6ECF9
S1130640D0E005C0908195FFFDCF8D918883A217DE
S1130650B30721F0808185FDF8CFF4CFE0ECF0E022
S1130660808186FFFDCFDF91CF91089585E085BD20
S1130670EEE6F0E0808181608083A89A16BC08953C
S113068081E88093800089E080938100219A7894A6
S113069008950E9436030E94400308958FEF8093CB
S11306A0B300229AE0EBF0E0808182608083E0E78F
S11306B0F0E0808182608083E1EBF0E080818760FC
S11306C0808378940895EE0FFF1F0590F491E02D38
S11306D00994BB274A3031F4992322F4BDE2909562
S11306E081959F4F0C947503BB27FB015527AA27BF
S11306F0880F991FAA1FA41710F0A41B83955051AB
S1130700B9F7A05DAA3308F0A95DA193009779F722
S1130710B111B1931192CB010C948E03DC01FC0155
S1130720672F71917723E1F7329704C07C916D9321
S113073070836291AE17BF07C8F30895F894FFCF92
S11307400A54656D70657261747572613A200000B7
S9030000FC
